:100000000C9476000C949E000C949E000C949E0020
:100010000C949E000C949E000C949E000C949E00E8
:100020000C949E000C949E000C949E000C949E00D8
:100030000C949E000C949E000C949E000C949E00C8
:100040000C94CB050C949E000C9428030C94020392
:100050000C949E000C949E000C949E000C949E00A8
:100060000C9422060C949E00C30BD80BD80BD70B14
:10007000D80BB50BD80BD80BD80BB70BD80BD80BAC
:10008000CA0BD50BD30BD80BD80BD80BD10B3034F4
:100090003A30363A3330004F6374203232203230F7
:1000A00031360000000000250028002B0004040465
:1000B0000404040404020202020202030303030311
:1000C00003010204081020408001020408102001EE
:1000D00002040810200000000800020100000304D0
:1000E00007000000000000000000D40911241FBE1A
:1000F000CFEFD8E0DEBFCDBF11E0A0E0B1E0E2E697
:10010000FCE102C005900D92A836B107D9F723E0B3
:10011000A8E6B1E001C01D92AC3DB207E1F710E0E6
:10012000C6E7D0E004C02197FE010E94910DC537BB
:10013000D107C9F70E941C0A0C942F0E0C940000E2
:10014000FC01918D828D981761F0828DDF01A80FDF
:10015000B11D5D968C91928D9F5F9F73928F90E001
:1001600008958FEF9FEF0895FC01918D828D981770
:1001700031F0828DE80FF11D858D90E008958FEFAD
:100180009FEF0895FC01918D228D892F90E0805C76
:100190009F4F821B91098F7399270895FC01848DCD
:1001A000DF01A80FB11DA35ABF4F2C91848D90E0A1
:1001B00001968F739927848FA689B7892C93A0897C
:1001C000B1898C9180648C93938D848D981306C033
:1001D0000288F389E02D80818F7D80830895EF92DE
:1001E000FF920F931F93CF93DF93EC0181E0888FF1
:1001F0009B8D8C8D981305C0E889F989808185FDD8
:1002000024C0F62E0B8D10E00F5F1F4F0F731127C8
:10021000E02E8C8DE8120CC00FB607FCFACFE889EF
:10022000F989808185FFF5CFCE010E94CE00F1CF04
:100230008B8DFE01E80FF11DE35AFF4FF0820B8F0B
:10024000EA89FB898081806207C0EE89FF8960832B
:10025000E889F98980818064808381E090E0DF9182
:10026000CF911F910F91FF90EF900895CF93DF935F
:10027000EC01888D8823C9F0EA89FB89808185FD9E
:1002800005C0A889B9898C9186FD0FC00FB607FCFF
:10029000F5CF808185FFF2CFA889B9898C9185FF40
:1002A000EDCFCE010E94CE00E7CFDF91CF91089530
:1002B00080E090E0892B29F00E94750881110C9450
:1002C0000000089585ED8093BC008091BC0084FD02
:1002D000FCCF1092020208950895E091BB01809135
:1002E000BA01E81730F4F0E0E454FE4F808190E06A
:1002F00008958FEF9FEF08959091BB018091BA010F
:10030000981750F4E92FF0E0E454FE4F208130E0DC
:100310009F5F9093BB0102C02FEF3FEFC90108958B
:100320008091BA0190E02091BB01821B9109089550
:10033000CF92DF92EF92FF920F931F93CF93DF93B1
:100340007C018A0180910302882389F0EB016B0113
:10035000C40ED51ECC15DD05F1F06991D701ED91E4
:10036000FC910190F081E02DC7010995F3CF842F16
:10037000413288F490910202943069F440938C01E8
:10038000FB012AE631E0D9019A2F921B981718F445
:1003900091919D93F9CFC801DF91CF911F910F915A
:1003A000FF90EF90DF90CF900895209103022223D9
:1003B000C9F020912502203240F021E030E0FC011C
:1003C0003383228380E090E0089580910402E82F37
:1003D000F0E0EB5FFD4F60838F5F809304028093BA
:1003E000250209C080910202843029F481E08093C3
:1003F0008C0160936A0181E090E00895EF92FF9292
:100400000F931F93CF93DF93EC01909169019F5F4E
:10041000292F27702093690190FF02C090E801C046
:1004200090E021FD9064247009F0906220E1290F92
:10043000FE013C967E018FE0E80EF11C00E011E029
:100440006191662331F070E0C8010E94DA0D6F5FA0
:1004500001C060E0DF0114976C93322F369F030ECA
:1004600030E0311D1124CF010797311103C0EC0199
:10047000188203C03150EC013883662311F06150BB
:100480006C93EE15FF05E1F6DF91CF911F910F916F
:10049000FF90EF90089580E991E00895569A0895AD
:1004A0000F931F93CF93DF93CDB7DEB762970FB64D
:1004B000F894DEBF0FBECDBF8C01F901DC011C96A4
:1004C0008C917A8369835C834B835E834D839081B7
:1004D0009D8791819E8792819F87813029F4CE01EB
:1004E00001960E94FE0106C01C861B861A8619868C
:1004F00018861F8283E0888B1A8A198AD801ED91A9
:10050000FC910484F585E02DBE016F5F7F4FC8012B
:10051000099562960FB6F894DEBF0FBECDBFDF918E
:10052000CF911F910F9108950F931F93CF93DF9356
:10053000CDB7DEB762970FB6F894DEBF0FBECDBF62
:100540008C01F901DC011C968C917A8369835C83B0
:100550004B835E834D8390819D8791819E8792819D
:100560009F87813029F4CE0101960E94FE0106C0CA
:100570001C861B861A86198618861F82188A1A8A74
:10058000198AD801ED91FC910484F585E02DBE0116
:100590006F5F7F4FC801099562960FB6F894DEBF72
:1005A0000FBECDBFDF91CF911F910F91089580E0D5
:1005B00090E00895FC01858596850895CF93DF939B
:1005C00000D000D000D0CDB7DEB7AB011C821D82B9
:1005D0001E82DC01ED91FC910190F081E02D1982E9
:1005E0001A821B829E012F5F3F4FBE016C5F7F4FBF
:1005F000099526960FB6F894DEBF0FBECDBFDF91EA
:10060000CF9108951F920F920FB60F9211242F933E
:100610003F934F935F936F937F938F939F93AF938A
:10062000BF93EF93FF9386E292E00E94CE00FF918A
:10063000EF91BF91AF919F918F917F916F915F915A
:100640004F913F912F910F900FBE0F901F901895D3
:100650001F920F920FB60F9211242F938F939F9397
:10066000EF93FF93E0913602F09137028081E091A1
:100670003C02F0913D0282FD12C0908180913F02C8
:100680008F5F8F7320914002821751F0E0913F02FB
:10069000F0E0EA5DFD4F958F80933F0201C08081BD
:1006A000FF91EF919F918F912F910F900FBE0F901F
:1006B0001F9018953FB7F8948091B2019091B301C3
:1006C000A091B401B091B50126B5A89B05C02F3FFC
:1006D00019F00196A11DB11D3FBFBA2FA92F982F68
:1006E0008827820F911DA11DB11DBC01CD0142E0E3
:1006F000660F771F881F991F4A95D1F708954F926B
:100700005F926F927F928F92AF92BF92CF92EF9251
:10071000FF920F931F93CF93DF933C01EB010E9455
:100720005A03F30127853089621B730B6A30710508
:10073000B0F3F894E881F9815BB150648BB18F7BA1
:100740008BB96A859F81262F291B922F2F83BF8407
:100750004A805B807D85FC84EE847F5FF394E39424
:100760003E814885A984CB841181D20120E0C32F2A
:10077000022F322F3181112788943111390F08F45B
:100780003FEF9195889470FD130F1795889471FD34
:10079000130F1795889472FD130F1795889473FDA6
:1007A000130F1795889474FD130F1795889475FD92
:1007B000130F1795889476FD130F1795889477FD7E
:1007C000130F17958894232F7111212F960F122F35
:1007D000002C5BB900C017FF8BB9308122278894A9
:1007E00000C000C0002C8BB931113C0F00C0002CA0
:1007F0005BB900C016FF8BB908F43FEFC195889430
:1008000000C000C0002C8BB9F0FC230F00C0002CEE
:100810005BB900C015FF8BB927958894F1FC230FB5
:1008200000C000C0002C8BB92795889400C0002C14
:100830005BB900C014FF8BB9F2FC230F2795889495
:1008400000C000C0002C8BB9F3FC230F00C0002CAB
:100850005BB900C013FF8BB927958894F4FC230F74
:1008600000C000C0002C8BB92795889400C0002CD4
:100870005BB900C012FF8BB9F5FC230F2795889454
:1008800000C000C0002C8BB9F6FC230F00C0002C68
:100890005BB900C011FF8BB927958894F7FC230F33
:1008A00000C000C0002C8BB92795889400C0002C94
:1008B0005BB900C010FF8BB9132FF110122FCA0DB6
:1008C00000C000C0002C8BB900C000C0002C5BB978
:1008D00000C017FF8BB932812227889400C000C066
:1008E000002C8BB93111340F00C0002C5BB900C053
:1008F00016FF8BB908F43FEFEB0DF11D00C000C0EF
:10090000002C8BB9E0FC230F00C0002C5BB900C0A9
:1009100015FF8BB927958894E1FC230F00C000C018
:10092000002C8BB92795889400C0002C5BB900C0BF
:1009300014FF8BB9E2FC230F2795889400C000C0F8
:10094000002C8BB9E3FC230F00C0002C5BB900C066
:1009500013FF8BB927958894E4FC230F00C000C0D7
:10096000002C8BB92795889400C0002C5BB900C07F
:1009700012FF8BB9E5FC230F2795889400C000C0B7
:10098000002C8BB9E6FC230F00C0002C5BB900C023
:1009900011FF8BB927958894E7FC230F00C000C096
:1009A000002C8BB92795889400C0002C5BB900C03F
:1009B00010FF8BB9132FE110122F419500C000C01A
:1009C000002C8BB94C0D00C000C05BB900C017FFF4
:1009D0008BB931812227889400C000C0002C8BB9CC
:1009E0003111390F00C0002C5BB900C016FF8BB964
:1009F00008F43FEF9195889400C000C0002C8BB99B
:100A000070FD230F00C0002C5BB900C015FF8BB92F
:100A10002795889471FD230F00C000C0002C8BB96E
:100A20002795889400C0002C5BB900C014FF8BB9D7
:100A300072FD230F2795889400C000C0002C8BB94D
:100A400073FD230F00C0002C5BB900C013FF8BB9EE
:100A50002795889474FD230F00C000C0002C8BB92B
:100A60002795889400C0002C5BB900C012FF8BB999
:100A700075FD230F2795889400C000C0002C8BB90A
:100A800076FD230F00C0002C5BB900C011FF8BB9AD
:100A90002795889477FD230F00C000C0002C8BB9E8
:100AA0002795889400C0002C5BB900C010FF8BB95B
:100AB000132F7111122F960F00C000C0002C8BB99C
:100AC000119709F086CE20EE31E0D2010E94970DF9
:100AD000DC01CB01F4E0B695A79597958795FA953B
:100AE000D1F720E030E0A9016AE9469E412D569EEB
:100AF000400D511D1124840F951FA11DB11D893E6C
:100B000043E09407A105B10588F1885E9340A109EF
:100B1000B10942E0B695A795979587954A95D1F783
:100B200047E0849F212D949F200D311D1124609159
:100B3000680170E0860F971F820F931F4091B601E6
:100B40005091B7016091B8017091B901292F3327F5
:100B5000420F531F611D711D4093B6015093B701A1
:100B60006093B8017093B9018093680178940E94F2
:100B70005A03F301708B6787DF91CF911F910F911B
:100B8000FF90EF90CF90BF90AF908F907F906F903D
:100B90005F904F9008951F920F920FB60F921124FD
:100BA0002F933F938F939F93AF93BF938091B60101
:100BB0009091B701A091B801B091B9013091B10104
:100BC00023E0230F2D3720F40196A11DB11D05C090
:100BD00026E8230F0296A11DB11D2093B101809339
:100BE000B6019093B701A093B801B093B901809179
:100BF000B2019091B301A091B401B091B5010196F9
:100C0000A11DB11D8093B2019093B301A093B401D3
:100C1000B093B501BF91AF919F918F913F912F916B
:100C20000F900FBE0F901F901895FC01908190536C
:100C30009A3008F090E0818180532AE0929F800DE5
:100C4000112408951F920F920FB60F9211242F9323
:100C50003F934F935F936F937F938F939F93AF9344
:100C6000BF93EF93FF938091B900887F803609F49A
:100C70009CC068F5883209F45BC090F4803109F4B7
:100C800054C038F4882309F4F3C0883009F44DC007
:100C9000F3C0883109F44CC0803209F45DC0ECC067
:100CA000803409F468C048F4803309F455C08833AF
:100CB00009F0E2C080930002D5C0803509F44FC02E
:100CC000883509F45DC0883409F0D6C0D3C08839AE
:100CD00009F4C4C0A8F4883709F467C038F488362A
:100CE00009F463C0803709F460C0C6C0883809F4CD
:100CF000B5C0803909F45FC0803809F0BDC05BC061
:100D0000803B09F483C038F4803A09F466C0883A1D
:100D100009F47CC0B1C0803C09F4A4C0883C09F44B
:100D2000A1C0883B09F487C0A7C08091DD0110C035
:100D30009091FF018091FE01981770F5E091FF01FD
:100D400081E08E0F8093FF01F0E0E252FE4F808140
:100D50008093BB0085EC83C0809300028BC0E09140
:100D6000FF0181E08E0F8093FF018091BB00F0E0D6
:100D7000E252FE4F80839091FF018091FE016BC093
:100D8000E091FF0181E08E0F8093FF018091BB0015
:100D9000F0E0E252FE4F80838091010281116AC02F
:100DA00081E08093DC0184EA5EC083E080930202EC
:100DB0001092B001CFCF8091B001803208F04EC0C8
:100DC000E091B00181E08E0F8093B0018091BB0073
:100DD000F0E0E057FE4F8083BDCF8091B0018032BC
:100DE00030F4E091B001F0E0E057FE4F10820E9435
:100DF00062016091B00170E0E0918E01F0918F018D
:100E000080E991E009951092B0012CC084E08093B4
:100E1000020210928D0110928C01E0918A01F091F2
:100E20008B01099580918C01811105C081E080932F
:100E30008C0110926A01E0918D0181E08E0F809308
:100E40008D01F0E0E659FE4F80818093BB009091C8
:100E50008D0180918C01981708F47CCF85E88093F0
:100E6000BC000AC085EC8093BC001092020204C052
:100E7000109200020E946201FF91EF91BF91AF9129
:100E80009F918F917F916F915F914F913F912F91A2
:100E90000F900FBE0F901F901895209125029091F2
:100EA000C203213208F046C0809102028111FCCFBA
:100EB00032E03093020231E0309301023FEF309391
:100EC00000021092FF012093FE01A5E0B2E04EED7A
:100ED00051E0FA013E2F341B321718F43D91319343
:100EE000F9CF1092DD012091DD01990F922B9093A3
:100EF000DD019091DC01913041F41092DC01909180
:100F0000DD019093BB0095EC01C095EE9093BC0081
:100F1000909102029230E1F3909100029F3F79F0AC
:100F200080910002803241F080910002803331F0E4
:100F300084E005C081E003C082E001C083E010923C
:100F40000402109225021092030208959091020269
:100F50009111FCCF91E090930202909301022FEF48
:100F6000209300021092FF01260F2093FE01909320
:100F7000DD019091DD01880F892B8093DD01809147
:100F8000DC01813041F41092DC018091DD0180931D
:100F9000BB0085EC01C085EE8093BC00809102020D
:100FA0008130E1F38091FF01861710F46091FF0119
:100FB000AEEDB1E02CEB31E0F9018E2F821B8617EC
:100FC00018F48D918193F9CF862F089590E0FC015C
:100FD000EB52FF4F2491FC01EF53FF4F3491FC0182
:100FE000E355FF4FE491EE23B1F1222339F1233091
:100FF00091F038F42130A9F0223001F584B58F7DCD
:1010000012C0273091F02830A1F02430B9F480913B
:1010100080008F7D03C0809180008F778093800057
:101020000DC084B58F7784BD09C08091B0008F77E3
:1010300003C08091B0008F7D8093B000F0E0EE0F90
:10104000FF1FED55FF4FA591B4918FB7F894EC9128
:101050003E2B3C938FBF0895CF92DF92EF92FF9289
:101060000F931F93CF93DF936C017A018B01C0E044
:10107000D0E0CE15DF0589F0D8016D918D01D60144
:10108000ED91FC910190F081E02DC6010995892B2D
:1010900011F47E0102C02196ECCFC701DF91CF9100
:1010A0001F910F91FF90EF90DF90CF90089581E016
:1010B0008093030288E68093C20310920402109288
:1010C00025026FE083EC93E00E94D5010E944D075A
:1010D00061E088E60E94A6071092BB018093BA01E6
:1010E00083EC93E00E947C01089586E292E00E94E6
:1010F000C20021E0892B09F420E0822F0895CF93CC
:10110000DF93009779F0FC0101900020E9F7319717
:10111000AF01481B590BBC0186E292E00E942C08EB
:10112000EC0102C0C0E0D0E042E050E062E471E0D7
:1011300086E292E00E942C088C0F9D1FDF91CF91D8
:1011400008953F924F925F926F927F928F929F92FB
:10115000AF92BF92CF92DF92EF92FF920F931F93C5
:10116000CF93DF9300D01F92CDB7DEB7F82E8091DA
:10117000D2039091D303A091D403B091D503892BCE
:101180008A2B8B2BE9F00E945A030091BE03109129
:10119000BF032091C0033091C103DC01CB01801B50
:1011A000910BA20BB30B0091D2031091D3032091AA
:1011B000D4033091D50380179107A207B307B8F283
:1011C0000E945A036093BE037093BF038093C003D1
:1011D0009093C103E091DA03F091DB03309759F06B
:1011E0004091D6035091D7036091D8037091D903F1
:1011F0008F2D0995F82E0091BC031091BD034F2C43
:10120000512C612C712C0115110509F461C0D80114
:101210001C96EC901C978091D0039091D10384365A
:10122000910510F41C961C92D801ED91FC91A280BE
:10123000B38019821A821B82F11014C0F80145850F
:101240005685628173819E012F5F3F4FC801F50172
:101250000995D8011C96EC921C9714960D911C913F
:101260001597D1CFF8013996CE0101966C0148014E
:101270009CE0890E911CDF0113973C902191332053
:1012800001F12223F1F0822F90E0A0E0B0E09C0178
:10129000AD012F5F3F4F4F4F5F4FC301B2010E941F
:1012A000750D9B01AC01832D90E0A0E0B0E0BC0186
:1012B000CD016F5F7F4F8F4F9F4F0E94750DD601FD
:1012C0008C93BFEFCB1ADB0AE815F905A1F6B6CF70
:1012D0008091BA039091BB039C012F5F3F4F3093E5
:1012E000BB032093BA0349970CF447C08FB7F89417
:1012F0000091B6011091B7012091B8013091B90168
:101300008FBFE091BA03F091BB0388EE93E0E89FB2
:10131000B001E99F700DF89F700D1124072E000C8D
:10132000880B990BC090B603D090B703E090B80338
:10133000F090B903A90198012C193D094E095F09E4
:101340000E94EE0D3093D1032093D0031092BB0383
:101350001092BA032FB7F8948091B6019091B7011B
:10136000A091B801B091B9012FBF8093B6039093BB
:10137000B703A093B803B093B9030F900F900F90E9
:10138000DF91CF911F910F91FF90EF90DF90CF9061
:10139000BF90AF909F908F907F906F905F904F9095
:1013A0003F9008950E94B80DE6E2F2E013821282A7
:1013B00088EE93E0A0E0B0E084839583A683B783B2
:1013C00026E231E03183208325EC30E03587248725
:1013D00024EC30E03787268720EC30E0318B208BFF
:1013E00021EC30E0338B228B22EC30E0358B248BE8
:1013F00026EC30E0378B268B118E128E138E148ED6
:10140000E3ECF3E01382128284839583A683B7838F
:1014100086E391E091838083EFECF3E08FEF8083AC
:1014200012821182148613868FEF9FEFDC0187836F
:101430009087A187B2870895CF93DF93CDB7DEB7AA
:101440002B970FB6F894DEBF0FBECDBF789484B54E
:10145000826084BD84B5816084BD85B5826085BDB0
:1014600085B5816085BD80916E00816080936E003E
:101470001092810080918100826080938100809130
:1014800081008160809381008091800081608093E1
:1014900080008091B10084608093B1008091B000A1
:1014A00081608093B00080917A00846080937A009C
:1014B00080917A00826080937A0080917A008160C6
:1014C00080937A0080917A00806880937A001092ED
:1014D000C1008091D602811145C01092C8021092BD
:1014E000C7028FEF8093CB028093CC028093CD0212
:1014F0008093CE028093CF028093D00281E08093CC
:10150000D1021092D3021092D2021092CA0210920B
:10151000C9028091BC039091BD03892B31F485EC05
:1015200092E09093BD038093BC03E091C302F091DD
:10153000C402309721F085EC92E09583848385EC9A
:1015400092E09093C4028093C3021092D50210924D
:10155000D40284E191E09093C6028093C50281E0B9
:101560008093D602E091C502F091C6020480F58115
:10157000E02D85EC92E009958EED92E09093C80203
:101580008093C70288E490E09093D3028093D202C4
:10159000E091C502F091C6020284F385E02D85EC4E
:1015A00092E00995009711F19C0140E050E060E461
:1015B00072E48FE090E00E94100EC090D203D090B1
:1015C000D303E090D403F090D503C901DA018C1560
:1015D0009D05AE05BF0510F4D701C6018093D20367
:1015E0009093D303A093D403B093D503E12CF12CB3
:1015F000F701E252FD4F1082118212828091CF03D7
:101600000E94A10823E0E20EF11C88EDE816F10427
:1016100079F7E0913602F091370282E08083E09121
:101620003202F09133021082E0913402F0913502DF
:101630008FEC808310923E02E0913A02F0913B02DF
:1016400086E08083E0913802F091390280818061E8
:101650008083E0913802F091390280818860808334
:10166000E0913802F0913902808180688083E091B6
:101670003802F091390280818F7D80830E945A0365
:101680004B015C01A8EECA2EA3E0DA2EE12CF12C6E
:101690000E945A03DC01CB0188199909AA09BB09E8
:1016A000883E9340A105B10558F091E0C91AD108D0
:1016B000E108F108A8EE8A0EA3E09A1EA11CB11C55
:1016C000C114D104E104F10419F71092BB01109286
:1016D000BA0110920402109225021092020281E0D7
:1016E000809301021092DC0182E10E94E60783E10F
:1016F0000E94E6078091B9008E7F8093B9008091A7
:10170000B9008D7F8093B90088E48093B80085E4A8
:101710008093BC000E94570890E0880F892F881F93
:10172000990B892B09F4E5C085E491E00E947F08BC
:101730004BE050E067E970E0CE0101960E94BD0DDC
:10174000CE010A960E941506082FE9814E2FEE0F52
:10175000550B660B770BFA01E154F109E331F10502
:1017600038F5EC5CFF4F0C94910D12E021C08A819A
:10177000813639F08B818E3611F017E019C016E0F2
:1017800017C011E015C08B81823711F018E010C02E
:1017900014E00EC08B81823711F015E009C013E010
:1017A00007C019E005C01AE003C01BE001C01CE03F
:1017B000CE0105960E941506C82E48E050E06EE85E
:1017C00070E0CE0101960E94BD0DCE0101960E94EF
:1017D0001506B82ECE0104960E941506A82ECE013D
:1017E00007960E941506982EDD24D394D09203020A
:1017F00078E6E72EE092C2031092040210922502CE
:1018000060E083EC93E00E94D501EAE0FE2E892D92
:101810006F2D0E94850D482F880F480F440F642FAD
:10182000690D83EC93E00E94D5018A2D6F2D0E94F3
:10183000850D382F880F380F330F632F6A0D83EC17
:1018400093E00E94D5018B2D6F2D0E94850D282FCE
:10185000880F280F220F622F6B0D83EC93E00E94FC
:10186000D50160E083EC93E00E94D5018C2D6F2DB3
:101870000E94850D982F880F980F990F692F6C0D76
:1018800083EC93E00E94D501812F6F2D0E94850D7E
:10189000682F660F860F880F682F610F83EC93E027
:1018A0000E94D501802F6F2D0E94850D682F660F35
:1018B000680F660F600F83EC93E00E94D5010E94D1
:1018C0004D070E945708182FD0920302E092C203DE
:1018D00010920402109225026FE083EC93E00E94C4
:1018E000D501612F6F7783EC93E00E94D5010E94B0
:1018F0004D0701E058E6F52E1AEF65E5E62E009358
:101900000302F092C203109204021092250260E0DA
:1019100083EC93E00E94D5010E944D0767E088E6C2
:101920000E94A6071092BB018093BA0183EC93E05A
:101930000E947C018F77982F92959F70D82E919F4F
:10194000D00C112483EC93E00E947C019C0133278E
:1019500094E0359527959A95E1F7B82E129FB00C33
:10196000112483EC93E00E947C019C01332744E026
:10197000359527954A95E1F7C82E129FC00C112482
:1019800083EC93E00E947C0183EC93E00E947C0155
:1019900083EC93E00E947C0183EC93E00E947C0145
:1019A0006D2D70E04B2D50E02C2D30E0FBE0FC1550
:1019B00008F090C0205D3F4F1092B3031092B40323
:1019C0001092B503F9013197CF01880F991FE80FE5
:1019D000F91FE252FD4F108211821282F901EE0FBF
:1019E000FF1F2E0F3F1FF901E252FD4F1082E182CF
:1019F00012822BE3D21631F010928F0310929003D3
:101A000010929103FB013197CF01880F991FE80FC6
:101A1000F91FE252FD4F1082118212826B01CC0C31
:101A2000DD1CD601A60FB71FCD0182529D4F5C0170
:101A3000DC01EC9211961C92119712961C92FA01FD
:101A40003197CF01880F991FE80FF91FE252FD4F20
:101A50001082118212829A01220F331FC901840F52
:101A6000951F82529D4FDC011C9211961C9211977A
:101A70001296EC929081D5018C9198130BC09181B4
:101A800011968C911197981305C0928112968C91A2
:101A9000981719F1F901E40FF51FE252FD4F6C0D93
:101AA0007D1DDB01A252BD4F90818C9198130BC01C
:101AB000918111968C911197981305C0928112967D
:101AC0008C91981771F08091CF030E94A1080E9419
:101AD000580115CF245C3F4F6FCFE08211821282F4
:101AE000D9CFE0821182E282EECFDB018F939F9308
:101AF0000E949E0DBF91AF91A29F800D911DA39F4B
:101B0000900DB29F900D11240895991B79E004C0A7
:101B1000991F961708F0961B881F7A95C9F780952C
:101B20000895EE0FFF1F0590F491E02D09940E9497
:101B3000A90DB7FF0895821B930B08950E94A90D6C
:101B4000A59F900DB49F900DA49F800D911D112411
:101B50000895A29FB001B39FC001A39F700D811D86
:101B60001124911DB29F700D811D1124911D0895A6
:101B700081E090E0F8940C942F0EFB01DC0102C090
:101B800005900D9241505040D8F70895AA1BBB1BF9
:101B900051E107C0AA1FBB1FA617B70710F0A61B6D
:101BA000B70B881F991F5A95A9F780959095BC018E
:101BB000CD01089597FB072E16F4009407D077FD0A
:101BC00009D00E94C60D07FC05D03EF49095819582
:101BD0009F4F0895709561957F4F0895A1E21A2E49
:101BE000AA1BBB1BFD010DC0AA1FBB1FEE1FFF1FC1
:101BF000A217B307E407F50720F0A21BB30BE40B11
:101C0000F50B661F771F881F991F1A9469F7609557
:101C10007095809590959B01AC01BD01CF01089511
:101C2000052E97FB1EF400940E94270E57FD07D047
:101C30000E94EE0D07FC03D04EF40C94270E509535
:101C40004095309521953F4F4F4F5F4F08959095A8
:101C50008095709561957F4F8F4F9F4F0895F894B1
:021C6000FFCFB4
:101C620000000000D209D209D209DE02DA02D7024C
:101C720000000000940250024E02DE02DA024B0221
:101C82007F0300000000EF002C08C200A000B40097
:101C9200360100000000D501980190017C016D0120
:101CA2006C010D0A00525443206C6F737420706FE4
:101CB2007765722C206C6574732073657420746868
:081CC200652074696D652100C5
:00000001FF
